{
  "_format": "hh3-artifact-1",
  "contractName": "DEX",
  "sourceName": "contracts/DEXcontract.sol",
  "abi": [
    {
      "inputs": [
        {
          "internalType": "address",
          "name": "_tokenA",
          "type": "address"
        },
        {
          "internalType": "address",
          "name": "_tokenB",
          "type": "address"
        },
        {
          "internalType": "uint256",
          "name": "_r",
          "type": "uint256"
        },
        {
          "internalType": "address",
          "name": "_fee_recipient",
          "type": "address"
        }
      ],
      "stateMutability": "nonpayable",
      "type": "constructor"
    },
    {
      "inputs": [],
      "name": "TokenA",
      "outputs": [
        {
          "internalType": "address",
          "name": "",
          "type": "address"
        }
      ],
      "stateMutability": "view",
      "type": "function"
    },
    {
      "inputs": [],
      "name": "TokenB",
      "outputs": [
        {
          "internalType": "address",
          "name": "",
          "type": "address"
        }
      ],
      "stateMutability": "view",
      "type": "function"
    },
    {
      "inputs": [
        {
          "internalType": "uint256",
          "name": "amountA",
          "type": "uint256"
        },
        {
          "internalType": "uint256",
          "name": "amountB",
          "type": "uint256"
        }
      ],
      "name": "addLiquidity",
      "outputs": [],
      "stateMutability": "nonpayable",
      "type": "function"
    },
    {
      "inputs": [],
      "name": "feeBalanceA",
      "outputs": [
        {
          "internalType": "uint256",
          "name": "",
          "type": "uint256"
        }
      ],
      "stateMutability": "view",
      "type": "function"
    },
    {
      "inputs": [],
      "name": "feeBalanceB",
      "outputs": [
        {
          "internalType": "uint256",
          "name": "",
          "type": "uint256"
        }
      ],
      "stateMutability": "view",
      "type": "function"
    },
    {
      "inputs": [],
      "name": "feeRecipient",
      "outputs": [
        {
          "internalType": "address",
          "name": "",
          "type": "address"
        }
      ],
      "stateMutability": "view",
      "type": "function"
    },
    {
      "inputs": [],
      "name": "fee_recipient",
      "outputs": [
        {
          "internalType": "address",
          "name": "",
          "type": "address"
        }
      ],
      "stateMutability": "view",
      "type": "function"
    },
    {
      "inputs": [],
      "name": "getReserves",
      "outputs": [
        {
          "internalType": "uint256",
          "name": "reserveA",
          "type": "uint256"
        },
        {
          "internalType": "uint256",
          "name": "reserveB",
          "type": "uint256"
        }
      ],
      "stateMutability": "view",
      "type": "function"
    },
    {
      "inputs": [],
      "name": "k",
      "outputs": [
        {
          "internalType": "uint256",
          "name": "",
          "type": "uint256"
        }
      ],
      "stateMutability": "view",
      "type": "function"
    },
    {
      "inputs": [],
      "name": "r",
      "outputs": [
        {
          "internalType": "uint256",
          "name": "",
          "type": "uint256"
        }
      ],
      "stateMutability": "view",
      "type": "function"
    },
    {
      "inputs": [
        {
          "internalType": "address",
          "name": "tokenIn",
          "type": "address"
        },
        {
          "internalType": "uint256",
          "name": "amountIn",
          "type": "uint256"
        }
      ],
      "name": "swap",
      "outputs": [],
      "stateMutability": "nonpayable",
      "type": "function"
    },
    {
      "inputs": [],
      "name": "withdrawFee",
      "outputs": [],
      "stateMutability": "nonpayable",
      "type": "function"
    },
    {
      "inputs": [],
      "name": "x",
      "outputs": [
        {
          "internalType": "uint256",
          "name": "",
          "type": "uint256"
        }
      ],
      "stateMutability": "view",
      "type": "function"
    },
    {
      "inputs": [],
      "name": "y",
      "outputs": [
        {
          "internalType": "uint256",
          "name": "",
          "type": "uint256"
        }
      ],
      "stateMutability": "view",
      "type": "function"
    }
  ],
  "bytecode": "0x60c060405234801561000f575f5ffd5b50604051610b94380380610b9483398101604081905261002e91610086565b6001600160a01b0393841660805291831660a0526001555f8080556002819055600355600480546001600160a01b031916919092161790556100d0565b80516001600160a01b0381168114610081575f5ffd5b919050565b5f5f5f5f60808587031215610099575f5ffd5b6100a28561006b565b93506100b06020860161006b565b9250604085015191506100c56060860161006b565b905092959194509250565b60805160a051610a646101305f395f818161015a01528181610363015281816104180152818161055d015261090201525f81816101c4015281816102ce015281816103dd01528181610524015281816105fc015261086c0152610a645ff3fe608060405234801561000f575f5ffd5b50600436106100e5575f3560e01c8063758f969a11610088578063b4f40c6111610063578063b4f40c61146101b6578063b52c81d4146101bf578063d004f0f7146101e6578063e941fa78146101f9575f5ffd5b8063758f969a146101855780639cd441da14610198578063a56dfe4a146101ad575f5ffd5b806346904840116100c357806346904840146101275780634bdcd17d1461014c5780634c7552d6146101555780636c8ae38c1461017c575f5ffd5b80630902f1ac146100e95780630c55699c14610108578063188311b81461011e575b5f5ffd5b5f54600254604080519283526020830191909152015b60405180910390f35b6101105f5481565b6040519081526020016100ff565b61011060065481565b6004546001600160a01b03165b6040516001600160a01b0390911681526020016100ff565b61011060055481565b6101347f000000000000000000000000000000000000000000000000000000000000000081565b61011060015481565b600454610134906001600160a01b031681565b6101ab6101a636600461093d565b610201565b005b61011060025481565b61011060035481565b6101347f000000000000000000000000000000000000000000000000000000000000000081565b6101ab6101f436600461095d565b6103db565b6101ab61077e565b5f8211801561020f57505f81115b6102605760405162461bcd60e51b815260206004820152601a60248201527f416d6f756e7473206d7573742062652061626f766520302e2e2e00000000000060448201526064015b60405180910390fd5b815f5f82825461027091906109a6565b925050819055508060025f82825461028891906109a6565b909155505060025460015461029d91906109bf565b5f546102a991906109a6565b6003556040516323b872dd60e01b8152336004820152306024820152604481018390527f00000000000000000000000000000000000000000000000000000000000000006001600160a01b0316906323b872dd906064016020604051808303815f875af115801561031c573d5f5f3e3d5ffd5b505050506040513d601f19601f8201168201806040525081019061034091906109d6565b506040516323b872dd60e01b8152336004820152306024820152604481018290527f00000000000000000000000000000000000000000000000000000000000000006001600160a01b0316906323b872dd906064015b6020604051808303815f875af11580156103b2573d5f5f3e3d5ffd5b505050506040513d601f19601f820116820180604052508101906103d691906109d6565b505050565b7f00000000000000000000000000000000000000000000000000000000000000006001600160a01b0316826001600160a01b0316148061044c57507f00000000000000000000000000000000000000000000000000000000000000006001600160a01b0316826001600160a01b0316145b61048b5760405162461bcd60e51b815260206004820152601060248201526f24b73b30b634b2103a37b5b2b717171760811b6044820152606401610257565b6103e881116104dc5760405162461bcd60e51b815260206004820152601c60248201527f416d6f756e74206d7573742062652061626f766520313030302e2e2e000000006044820152606401610257565b5f6003541161051f5760405162461bcd60e51b815260206004820152600f60248201526e2737903634b8bab4b234ba3c97171760891b6044820152606401610257565b5f5f5f7f00000000000000000000000000000000000000000000000000000000000000006001600160a01b0316856001600160a01b0316036105fa577f0000000000000000000000000000000000000000000000000000000000000000925061058a6103e8856109fc565b60015490915061059a8286610a1b565b6105a491906109fc565b91506105b08185610a1b565b5f5f8282546105bf91906109a6565b925050819055508160025f8282546105d79190610a1b565b925050819055508060055f8282546105ef91906109a6565b909155506106939050565b7f000000000000000000000000000000000000000000000000000000000000000092506106296103e8856109fc565b6001549091506106398286610a1b565b61064391906109bf565b9150815f5f8282546106559190610a1b565b9091555061066590508185610a1b565b60025f82825461067591906109a6565b925050819055508060065f82825461068d91906109a6565b90915550505b6040516323b872dd60e01b8152336004820152306024820152604481018590526001600160a01b038616906323b872dd906064016020604051808303815f875af11580156106e3573d5f5f3e3d5ffd5b505050506040513d601f19601f8201168201806040525081019061070791906109d6565b5060405163a9059cbb60e01b8152336004820152602481018390526001600160a01b0384169063a9059cbb906044016020604051808303815f875af1158015610752573d5f5f3e3d5ffd5b505050506040513d601f19601f8201168201806040525081019061077691906109d6565b505050505050565b6004546001600160a01b031633146107e35760405162461bcd60e51b815260206004820152602260248201527f4f6e6c792066656520726563697069656e742063616e2077697468647261772e604482015261171760f11b6064820152608401610257565b5f60055411806107f457505f600654115b6108395760405162461bcd60e51b81526020600482015260166024820152752737903332b2b9903a37903bb4ba34323930bb97171760511b6044820152606401610257565b60058054600680545f938490559290559081156108e05760405163a9059cbb60e01b8152336004820152602481018390527f00000000000000000000000000000000000000000000000000000000000000006001600160a01b03169063a9059cbb906044016020604051808303815f875af11580156108ba573d5f5f3e3d5ffd5b505050506040513d601f19601f820116820180604052508101906108de91906109d6565b505b80156109395760405163a9059cbb60e01b8152336004820152602481018290527f00000000000000000000000000000000000000000000000000000000000000006001600160a01b03169063a9059cbb90604401610396565b5050565b5f5f6040838503121561094e575f5ffd5b50508035926020909101359150565b5f5f6040838503121561096e575f5ffd5b82356001600160a01b0381168114610984575f5ffd5b946020939093013593505050565b634e487b7160e01b5f52601160045260245ffd5b808201808211156109b9576109b9610992565b92915050565b80820281158282048414176109b9576109b9610992565b5f602082840312156109e6575f5ffd5b815180151581146109f5575f5ffd5b9392505050565b5f82610a1657634e487b7160e01b5f52601260045260245ffd5b500490565b818103818111156109b9576109b961099256fea26469706673582212207bb0d4ad0cc8509862e1ca640bf652f05a1581f385c5c19a7f7fa5e9965101db64736f6c634300081c0033",
  "linkReferences": {},
  "deployedLinkReferences": {},
  "immutableReferences": {
    "82": [
      {
        "length": 32,
        "start": 452
      },
      {
        "length": 32,
        "start": 718
      },
      {
        "length": 32,
        "start": 989
      },
      {
        "length": 32,
        "start": 1316
      },
      {
        "length": 32,
        "start": 1532
      },
      {
        "length": 32,
        "start": 2156
      }
    ],
    "84": [
      {
        "length": 32,
        "start": 346
      },
      {
        "length": 32,
        "start": 867
      },
      {
        "length": 32,
        "start": 1048
      },
      {
        "length": 32,
        "start": 1373
      },
      {
        "length": 32,
        "start": 2306
      }
    ]
  },
  "inputSourceName": "project/contracts/DEXcontract.sol",
  "buildInfoId": "solc-0_8_28-daa35325b7745adce34978664f37dc6602b2c013"
}