{
  "_format": "hh3-artifact-1",
  "contractName": "TokenTrade",
  "sourceName": "contracts/TokenTrade.sol",
  "abi": [
    {
      "inputs": [
        {
          "internalType": "address",
          "name": "_tokenA",
          "type": "address"
        },
        {
          "internalType": "address",
          "name": "_tokenB",
          "type": "address"
        }
      ],
      "stateMutability": "nonpayable",
      "type": "constructor"
    },
    {
      "anonymous": false,
      "inputs": [
        {
          "indexed": true,
          "internalType": "uint256",
          "name": "tradeId",
          "type": "uint256"
        }
      ],
      "name": "TradeCancelled",
      "type": "event"
    },
    {
      "anonymous": false,
      "inputs": [
        {
          "indexed": true,
          "internalType": "uint256",
          "name": "tradeId",
          "type": "uint256"
        },
        {
          "indexed": true,
          "internalType": "address",
          "name": "buyer",
          "type": "address"
        }
      ],
      "name": "TradeSettled",
      "type": "event"
    },
    {
      "anonymous": false,
      "inputs": [
        {
          "indexed": true,
          "internalType": "uint256",
          "name": "tradeId",
          "type": "uint256"
        },
        {
          "indexed": true,
          "internalType": "address",
          "name": "seller",
          "type": "address"
        },
        {
          "indexed": false,
          "internalType": "address",
          "name": "inputToken",
          "type": "address"
        },
        {
          "indexed": false,
          "internalType": "uint256",
          "name": "inputAmount",
          "type": "uint256"
        },
        {
          "indexed": false,
          "internalType": "address",
          "name": "askToken",
          "type": "address"
        },
        {
          "indexed": false,
          "internalType": "uint256",
          "name": "askAmount",
          "type": "uint256"
        },
        {
          "indexed": false,
          "internalType": "uint256",
          "name": "expiry",
          "type": "uint256"
        }
      ],
      "name": "TradeSetup",
      "type": "event"
    },
    {
      "inputs": [
        {
          "internalType": "uint256",
          "name": "tradeId",
          "type": "uint256"
        }
      ],
      "name": "cancelTrade",
      "outputs": [],
      "stateMutability": "nonpayable",
      "type": "function"
    },
    {
      "inputs": [],
      "name": "owner",
      "outputs": [
        {
          "internalType": "address",
          "name": "",
          "type": "address"
        }
      ],
      "stateMutability": "view",
      "type": "function"
    },
    {
      "inputs": [
        {
          "internalType": "uint256",
          "name": "tradeId",
          "type": "uint256"
        }
      ],
      "name": "settleTrade",
      "outputs": [],
      "stateMutability": "nonpayable",
      "type": "function"
    },
    {
      "inputs": [
        {
          "internalType": "address",
          "name": "inputTokenForSale",
          "type": "address"
        },
        {
          "internalType": "uint256",
          "name": "inputTokenAmount",
          "type": "uint256"
        },
        {
          "internalType": "uint256",
          "name": "outputTokenAsk",
          "type": "uint256"
        },
        {
          "internalType": "uint256",
          "name": "expiry",
          "type": "uint256"
        }
      ],
      "name": "setupTrade",
      "outputs": [],
      "stateMutability": "nonpayable",
      "type": "function"
    },
    {
      "inputs": [],
      "name": "tokenA",
      "outputs": [
        {
          "internalType": "address",
          "name": "",
          "type": "address"
        }
      ],
      "stateMutability": "view",
      "type": "function"
    },
    {
      "inputs": [],
      "name": "tokenAFeeBalance",
      "outputs": [
        {
          "internalType": "uint256",
          "name": "",
          "type": "uint256"
        }
      ],
      "stateMutability": "view",
      "type": "function"
    },
    {
      "inputs": [],
      "name": "tokenB",
      "outputs": [
        {
          "internalType": "address",
          "name": "",
          "type": "address"
        }
      ],
      "stateMutability": "view",
      "type": "function"
    },
    {
      "inputs": [],
      "name": "tokenBFeeBalance",
      "outputs": [
        {
          "internalType": "uint256",
          "name": "",
          "type": "uint256"
        }
      ],
      "stateMutability": "view",
      "type": "function"
    },
    {
      "inputs": [],
      "name": "tradeCounter",
      "outputs": [
        {
          "internalType": "uint256",
          "name": "",
          "type": "uint256"
        }
      ],
      "stateMutability": "view",
      "type": "function"
    },
    {
      "inputs": [
        {
          "internalType": "uint256",
          "name": "",
          "type": "uint256"
        }
      ],
      "name": "trades",
      "outputs": [
        {
          "internalType": "address",
          "name": "seller",
          "type": "address"
        },
        {
          "internalType": "address",
          "name": "inputToken",
          "type": "address"
        },
        {
          "internalType": "uint256",
          "name": "inputAmount",
          "type": "uint256"
        },
        {
          "internalType": "address",
          "name": "askToken",
          "type": "address"
        },
        {
          "internalType": "uint256",
          "name": "askAmount",
          "type": "uint256"
        },
        {
          "internalType": "uint256",
          "name": "expiry",
          "type": "uint256"
        },
        {
          "internalType": "bool",
          "name": "isCompleted",
          "type": "bool"
        }
      ],
      "stateMutability": "view",
      "type": "function"
    },
    {
      "inputs": [],
      "name": "withdrawFee",
      "outputs": [],
      "stateMutability": "nonpayable",
      "type": "function"
    }
  ],
  "bytecode": "0x6080604052348015600e575f5ffd5b50604051610fd9380380610fd9833981016040819052602b91607f565b5f80546001600160a01b03199081163317909155600180546001600160a01b039485169083161790556002805492909316911617905560ab565b80516001600160a01b0381168114607a575f5ffd5b919050565b5f5f60408385031215608f575f5ffd5b6096836065565b915060a2602084016065565b90509250929050565b610f21806100b85f395ff3fe608060405234801561000f575f5ffd5b50600436106100a6575f3560e01c80635f64b55b1161006e5780635f64b55b146101b0578063660d15b5146101c357806373422d93146101cc5780638da5cb5b146101df578063d793bc1d146101f1578063e941fa7814610204575f5ffd5b806309ec6cc7146100aa5780630fc63d10146100bf5780631d0bf959146100ef5780631e6c598e1461010657806345c4b8c9146101a7575b5f5ffd5b6100bd6100b8366004610df4565b61020c565b005b6001546100d2906001600160a01b031681565b6040516001600160a01b0390911681526020015b60405180910390f35b6100f860045481565b6040519081526020016100e6565b610162610114366004610df4565b600560208190525f918252604090912080546001820154600283015460038401546004850154958501546006909501546001600160a01b039485169693851695929490911692919060ff1687565b604080516001600160a01b0398891681529688166020880152860194909452949091166060840152608083015260a082019290925290151560c082015260e0016100e6565b6100f860035481565b6002546100d2906001600160a01b031681565b6100f860065481565b6100bd6101da366004610df4565b61042c565b5f546100d2906001600160a01b031681565b6100bd6101ff366004610e0b565b61084d565b6100bd610bf9565b5f818152600560205260409020546001600160a01b031633146102765760405162461bcd60e51b815260206004820152601f60248201527f4f6e6c792073656c6c65722063616e2063616e63656c2074726164652e2e2e0060448201526064015b60405180910390fd5b60065481106102bd5760405162461bcd60e51b815260206004820152601360248201527224b73b30b634b2103a3930b2329024a217171760691b604482015260640161026d565b5f8181526005602052604090206006015460ff161561031e5760405162461bcd60e51b815260206004820152601a60248201527f547261646520616c726561647920636f6d706c657465642e2e2e000000000000604482015260640161026d565b5f81815260056020526040808220600601805460ff191660011790555182917f4e02dcf02d8510f6c8a6878a3c54ae6e2bfbf552df29221d7a1eed173a6b1ae791a25f818152600560205260408082206001810154600290910154915163a9059cbb60e01b815233600482015260248101929092526001600160a01b03169063a9059cbb906044016020604051808303815f875af11580156103c2573d5f5f3e3d5ffd5b505050506040513d601f19601f820116820180604052508101906103e69190610e4e565b9050806104285760405162461bcd60e51b815260206004820152601060248201526f2932ba30b4b7103330b4b632b217171760811b604482015260640161026d565b5050565b60065481106104735760405162461bcd60e51b815260206004820152601360248201527224b73b30b634b2103a3930b2329024a217171760691b604482015260640161026d565b5f8181526005602052604090206006015460ff16156104d45760405162461bcd60e51b815260206004820152601a60248201527f547261646520616c726561647920636f6d706c657465642e2e2e000000000000604482015260640161026d565b5f818152600560208190526040909120015442106105275760405162461bcd60e51b815260206004820152601060248201526f2a3930b2329032bc3834b932b217171760811b604482015260640161026d565b5f818152600560205260409020546001600160a01b0316330361059c5760405162461bcd60e51b815260206004820152602760248201527f53656c6c65722063616e6e6f7420736574746c65207468656972206f776e20746044820152663930b23297171760c91b606482015260840161026d565b5f81815260056020526040808220600601805460ff1916600117905551339183917ff1cc5d36f8f47d5e7ad87b80492245e0396a634755efb10a0109cc7b5b8f83429190a35f818152600560208181526040808420815160e08101835281546001600160a01b0390811682526001830154811694820194909452600282015492810183905260038201549093166060840152600481015460808401529283015460a083015260069092015460ff16151560c08201529190610660906103e890610e88565b90505f8183604001516106739190610ea7565b60015460208501519192506001600160a01b039081169116036106ac578160035f8282546106a19190610ec0565b909155506106c39050565b8160045f8282546106bd9190610ec0565b90915550505b6060830151835160808501516040516323b872dd60e01b81523360048201526001600160a01b03928316602482015260448101919091525f9291909116906323b872dd906064016020604051808303815f875af1158015610726573d5f5f3e3d5ffd5b505050506040513d601f19601f8201168201806040525081019061074a9190610e4e565b90508061078d5760405162461bcd60e51b81526020600482015260116024820152702830bcb6b2b73a103330b4b632b217171760791b604482015260640161026d565b602084015160405163a9059cbb60e01b8152336004820152602481018490525f916001600160a01b03169063a9059cbb906044016020604051808303815f875af11580156107dd573d5f5f3e3d5ffd5b505050506040513d601f19601f820116820180604052508101906108019190610e4e565b9050806108455760405162461bcd60e51b81526020600482015260126024820152712232b634bb32b93c903330b4b632b217171760711b604482015260640161026d565b505050505050565b5f8311801561085b57505f82115b6108a75760405162461bcd60e51b815260206004820152601a60248201527f416d6f756e7473206d7573742062652061626f766520302e2e2e000000000000604482015260640161026d565b4281116108f65760405162461bcd60e51b815260206004820152601f60248201527f457870697279206d75737420626520696e20746865206675747572652e2e2e00604482015260640161026d565b6001546001600160a01b038581169116148061091f57506002546001600160a01b038581169116145b6109645760405162461bcd60e51b815260206004820152601660248201527524b73b30b634b21034b7383aba103a37b5b2b717171760511b604482015260640161026d565b6103e88310156109c75760405162461bcd60e51b815260206004820152602860248201527f547261646520616d6f756e7420746f6f20736d616c6c20746f2070726f63657360448201526739903332b297171760c11b606482015260840161026d565b6006546001545f906001600160a01b038781169116146109f2576001546001600160a01b03166109ff565b6002546001600160a01b03165b6040805160e0810182523381526001600160a01b0389811660208084019182528385018b815286841660608601908152608086018c815260a087018c81525f60c089018181528d8252600596879052998120985189546001600160a01b0319908116918a16919091178a55965160018a0180548916918a169190911790559351600289015591516003880180549096169616959095179093559251600485015590519083015591516006918201805460ff1916911515919091179055805492935090610aca83610ed3565b9091555050604080516001600160a01b0388811682526020820188905283168183015260608101869052608081018590529051339184917ff6c20ef552355ee65ededb130e4cb3dea3c00cfdd2589e0f4d4a605b7c48c3e09181900360a00190a36040516323b872dd60e01b8152336004820152306024820152604481018690525f906001600160a01b038816906323b872dd906064016020604051808303815f875af1158015610b7d573d5f5f3e3d5ffd5b505050506040513d601f19601f82011682018060405250810190610ba19190610e4e565b905080610bf05760405162461bcd60e51b815260206004820152601860248201527f546f6b656e207472616e73666572206661696c65642e2e2e0000000000000000604482015260640161026d565b50505050505050565b5f546001600160a01b03163314610c525760405162461bcd60e51b815260206004820152601f60248201527f4f6e6c79206f776e65722063616e20776974686472617720666565732e2e2e00604482015260640161026d565b60038054600480545f93849055929055908115610d2a576001545f805460405163a9059cbb60e01b81526001600160a01b039182166004820152602481018690529192169063a9059cbb906044016020604051808303815f875af1158015610cbc573d5f5f3e3d5ffd5b505050506040513d601f19601f82011682018060405250810190610ce09190610e4e565b905080610d285760405162461bcd60e51b81526020600482015260166024820152752bb4ba34323930bbb0b61020903330b4b632b217171760511b604482015260640161026d565b505b8015610428576002545f805460405163a9059cbb60e01b81526001600160a01b039182166004820152602481018590529192169063a9059cbb906044016020604051808303815f875af1158015610d83573d5f5f3e3d5ffd5b505050506040513d601f19601f82011682018060405250810190610da79190610e4e565b905080610def5760405162461bcd60e51b81526020600482015260166024820152752bb4ba34323930bbb0b61021103330b4b632b217171760511b604482015260640161026d565b505050565b5f60208284031215610e04575f5ffd5b5035919050565b5f5f5f5f60808587031215610e1e575f5ffd5b84356001600160a01b0381168114610e34575f5ffd5b966020860135965060408601359560600135945092505050565b5f60208284031215610e5e575f5ffd5b81518015158114610e6d575f5ffd5b9392505050565b634e487b7160e01b5f52601160045260245ffd5b5f82610ea257634e487b7160e01b5f52601260045260245ffd5b500490565b81810381811115610eba57610eba610e74565b92915050565b80820180821115610eba57610eba610e74565b5f60018201610ee457610ee4610e74565b506001019056fea2646970667358221220abaa6120f94a9057c54610b82e62a0b4afbd8b0eaff3847a25c6c91dc49e96ed64736f6c634300081c0033",
  "linkReferences": {},
  "deployedLinkReferences": {},
  "immutableReferences": {},
  "inputSourceName": "project/contracts/TokenTrade.sol",
  "buildInfoId": "solc-0_8_28-8436e3df1a28371406bf5557e3d5518d5ac156cb"
}