{
  "_format": "hh3-artifact-1",
  "contractName": "TokenLab05V2",
  "sourceName": "contracts/tokenLab05v2.sol",
  "abi": [
    {
      "inputs": [
        {
          "internalType": "address",
          "name": "target",
          "type": "address"
        }
      ],
      "name": "AddressEmptyCode",
      "type": "error"
    },
    {
      "inputs": [
        {
          "internalType": "address",
          "name": "implementation",
          "type": "address"
        }
      ],
      "name": "ERC1967InvalidImplementation",
      "type": "error"
    },
    {
      "inputs": [],
      "name": "ERC1967NonPayable",
      "type": "error"
    },
    {
      "inputs": [
        {
          "internalType": "address",
          "name": "spender",
          "type": "address"
        },
        {
          "internalType": "uint256",
          "name": "allowance",
          "type": "uint256"
        },
        {
          "internalType": "uint256",
          "name": "needed",
          "type": "uint256"
        }
      ],
      "name": "ERC20InsufficientAllowance",
      "type": "error"
    },
    {
      "inputs": [
        {
          "internalType": "address",
          "name": "sender",
          "type": "address"
        },
        {
          "internalType": "uint256",
          "name": "balance",
          "type": "uint256"
        },
        {
          "internalType": "uint256",
          "name": "needed",
          "type": "uint256"
        }
      ],
      "name": "ERC20InsufficientBalance",
      "type": "error"
    },
    {
      "inputs": [
        {
          "internalType": "address",
          "name": "approver",
          "type": "address"
        }
      ],
      "name": "ERC20InvalidApprover",
      "type": "error"
    },
    {
      "inputs": [
        {
          "internalType": "address",
          "name": "receiver",
          "type": "address"
        }
      ],
      "name": "ERC20InvalidReceiver",
      "type": "error"
    },
    {
      "inputs": [
        {
          "internalType": "address",
          "name": "sender",
          "type": "address"
        }
      ],
      "name": "ERC20InvalidSender",
      "type": "error"
    },
    {
      "inputs": [
        {
          "internalType": "address",
          "name": "spender",
          "type": "address"
        }
      ],
      "name": "ERC20InvalidSpender",
      "type": "error"
    },
    {
      "inputs": [],
      "name": "FailedCall",
      "type": "error"
    },
    {
      "inputs": [],
      "name": "InvalidInitialization",
      "type": "error"
    },
    {
      "inputs": [],
      "name": "NotInitializing",
      "type": "error"
    },
    {
      "inputs": [
        {
          "internalType": "address",
          "name": "owner",
          "type": "address"
        }
      ],
      "name": "OwnableInvalidOwner",
      "type": "error"
    },
    {
      "inputs": [
        {
          "internalType": "address",
          "name": "account",
          "type": "address"
        }
      ],
      "name": "OwnableUnauthorizedAccount",
      "type": "error"
    },
    {
      "inputs": [],
      "name": "UUPSUnauthorizedCallContext",
      "type": "error"
    },
    {
      "inputs": [
        {
          "internalType": "bytes32",
          "name": "slot",
          "type": "bytes32"
        }
      ],
      "name": "UUPSUnsupportedProxiableUUID",
      "type": "error"
    },
    {
      "anonymous": false,
      "inputs": [
        {
          "indexed": true,
          "internalType": "address",
          "name": "owner",
          "type": "address"
        },
        {
          "indexed": true,
          "internalType": "address",
          "name": "spender",
          "type": "address"
        },
        {
          "indexed": false,
          "internalType": "uint256",
          "name": "value",
          "type": "uint256"
        }
      ],
      "name": "Approval",
      "type": "event"
    },
    {
      "anonymous": false,
      "inputs": [
        {
          "indexed": false,
          "internalType": "uint64",
          "name": "version",
          "type": "uint64"
        }
      ],
      "name": "Initialized",
      "type": "event"
    },
    {
      "anonymous": false,
      "inputs": [
        {
          "indexed": true,
          "internalType": "address",
          "name": "previousOwner",
          "type": "address"
        },
        {
          "indexed": true,
          "internalType": "address",
          "name": "newOwner",
          "type": "address"
        }
      ],
      "name": "OwnershipTransferred",
      "type": "event"
    },
    {
      "anonymous": false,
      "inputs": [
        {
          "indexed": true,
          "internalType": "address",
          "name": "from",
          "type": "address"
        },
        {
          "indexed": true,
          "internalType": "address",
          "name": "to",
          "type": "address"
        },
        {
          "indexed": false,
          "internalType": "uint256",
          "name": "value",
          "type": "uint256"
        }
      ],
      "name": "Transfer",
      "type": "event"
    },
    {
      "anonymous": false,
      "inputs": [
        {
          "indexed": true,
          "internalType": "address",
          "name": "implementation",
          "type": "address"
        }
      ],
      "name": "Upgraded",
      "type": "event"
    },
    {
      "inputs": [],
      "name": "UPGRADE_INTERFACE_VERSION",
      "outputs": [
        {
          "internalType": "string",
          "name": "",
          "type": "string"
        }
      ],
      "stateMutability": "view",
      "type": "function"
    },
    {
      "inputs": [
        {
          "internalType": "address",
          "name": "owner",
          "type": "address"
        },
        {
          "internalType": "address",
          "name": "spender",
          "type": "address"
        }
      ],
      "name": "allowance",
      "outputs": [
        {
          "internalType": "uint256",
          "name": "",
          "type": "uint256"
        }
      ],
      "stateMutability": "view",
      "type": "function"
    },
    {
      "inputs": [
        {
          "internalType": "address",
          "name": "spender",
          "type": "address"
        },
        {
          "internalType": "uint256",
          "name": "value",
          "type": "uint256"
        }
      ],
      "name": "approve",
      "outputs": [
        {
          "internalType": "bool",
          "name": "",
          "type": "bool"
        }
      ],
      "stateMutability": "nonpayable",
      "type": "function"
    },
    {
      "inputs": [
        {
          "internalType": "address",
          "name": "account",
          "type": "address"
        }
      ],
      "name": "balanceOf",
      "outputs": [
        {
          "internalType": "uint256",
          "name": "",
          "type": "uint256"
        }
      ],
      "stateMutability": "view",
      "type": "function"
    },
    {
      "inputs": [
        {
          "internalType": "address",
          "name": "account",
          "type": "address"
        },
        {
          "internalType": "uint256",
          "name": "amount",
          "type": "uint256"
        }
      ],
      "name": "burnFrom",
      "outputs": [],
      "stateMutability": "nonpayable",
      "type": "function"
    },
    {
      "inputs": [],
      "name": "decimals",
      "outputs": [
        {
          "internalType": "uint8",
          "name": "",
          "type": "uint8"
        }
      ],
      "stateMutability": "view",
      "type": "function"
    },
    {
      "inputs": [],
      "name": "name",
      "outputs": [
        {
          "internalType": "string",
          "name": "",
          "type": "string"
        }
      ],
      "stateMutability": "view",
      "type": "function"
    },
    {
      "inputs": [],
      "name": "owner",
      "outputs": [
        {
          "internalType": "address",
          "name": "",
          "type": "address"
        }
      ],
      "stateMutability": "view",
      "type": "function"
    },
    {
      "inputs": [],
      "name": "proxiableUUID",
      "outputs": [
        {
          "internalType": "bytes32",
          "name": "",
          "type": "bytes32"
        }
      ],
      "stateMutability": "view",
      "type": "function"
    },
    {
      "inputs": [],
      "name": "renounceOwnership",
      "outputs": [],
      "stateMutability": "nonpayable",
      "type": "function"
    },
    {
      "inputs": [],
      "name": "symbol",
      "outputs": [
        {
          "internalType": "string",
          "name": "",
          "type": "string"
        }
      ],
      "stateMutability": "view",
      "type": "function"
    },
    {
      "inputs": [],
      "name": "totalSupply",
      "outputs": [
        {
          "internalType": "uint256",
          "name": "",
          "type": "uint256"
        }
      ],
      "stateMutability": "view",
      "type": "function"
    },
    {
      "inputs": [
        {
          "internalType": "address",
          "name": "to",
          "type": "address"
        },
        {
          "internalType": "uint256",
          "name": "value",
          "type": "uint256"
        }
      ],
      "name": "transfer",
      "outputs": [
        {
          "internalType": "bool",
          "name": "",
          "type": "bool"
        }
      ],
      "stateMutability": "nonpayable",
      "type": "function"
    },
    {
      "inputs": [
        {
          "internalType": "address",
          "name": "from",
          "type": "address"
        },
        {
          "internalType": "address",
          "name": "to",
          "type": "address"
        },
        {
          "internalType": "uint256",
          "name": "value",
          "type": "uint256"
        }
      ],
      "name": "transferFrom",
      "outputs": [
        {
          "internalType": "bool",
          "name": "",
          "type": "bool"
        }
      ],
      "stateMutability": "nonpayable",
      "type": "function"
    },
    {
      "inputs": [
        {
          "internalType": "address",
          "name": "newOwner",
          "type": "address"
        }
      ],
      "name": "transferOwnership",
      "outputs": [],
      "stateMutability": "nonpayable",
      "type": "function"
    },
    {
      "inputs": [
        {
          "internalType": "address",
          "name": "newImplementation",
          "type": "address"
        },
        {
          "internalType": "bytes",
          "name": "data",
          "type": "bytes"
        }
      ],
      "name": "upgradeToAndCall",
      "outputs": [],
      "stateMutability": "payable",
      "type": "function"
    }
  ],
  "bytecode": "0x60a0604052306080523480156012575f5ffd5b50608051610f846100395f395f81816106550152818161067e01526107bd0152610f845ff3fe6080604052600436106100ef575f3560e01c8063715018a611610087578063a9059cbb11610057578063a9059cbb146102b9578063ad3cb1cc146102d8578063dd62ed3e14610308578063f2fde38b14610327575f5ffd5b8063715018a61461022c57806379cc6790146102405780638da5cb5b1461025f57806395d89b41146102a5575f5ffd5b8063313ce567116100c2578063313ce567146101a85780634f1ef286146101c357806352d1902d146101d857806370a08231146101ec575f5ffd5b806306fdde03146100f3578063095ea7b31461011d57806318160ddd1461014c57806323b872dd14610189575b5f5ffd5b3480156100fe575f5ffd5b50610107610346565b6040516101149190610cc5565b60405180910390f35b348015610128575f5ffd5b5061013c610137366004610d15565b610406565b6040519015158152602001610114565b348015610157575f5ffd5b507f52c63247e1f47db19d5ce0460030c497f067ca4cebf71ba98eeadabe20bace02545b604051908152602001610114565b348015610194575f5ffd5b5061013c6101a3366004610d3d565b61041f565b3480156101b3575f5ffd5b5060405160128152602001610114565b6101d66101d1366004610d8b565b610442565b005b3480156101e3575f5ffd5b5061017b610461565b3480156101f7575f5ffd5b5061017b610206366004610e4f565b6001600160a01b03165f9081525f516020610f0f5f395f51905f52602052604090205490565b348015610237575f5ffd5b506101d661047c565b34801561024b575f5ffd5b506101d661025a366004610d15565b61048f565b34801561026a575f5ffd5b507f9016d09d72d40fdae2fd8ceac6b6234c7706214fd39c1cd1e609a0528c199300546040516001600160a01b039091168152602001610114565b3480156102b0575f5ffd5b506101076104a1565b3480156102c4575f5ffd5b5061013c6102d3366004610d15565b6104df565b3480156102e3575f5ffd5b50610107604051806040016040528060058152602001640352e302e360dc1b81525081565b348015610313575f5ffd5b5061017b610322366004610e6f565b6104ec565b348015610332575f5ffd5b506101d6610341366004610e4f565b610535565b7f52c63247e1f47db19d5ce0460030c497f067ca4cebf71ba98eeadabe20bace0380546060915f516020610f0f5f395f51905f529161038490610ea0565b80601f01602080910402602001604051908101604052809291908181526020018280546103b090610ea0565b80156103fb5780601f106103d2576101008083540402835291602001916103fb565b820191905f5260205f20905b8154815290600101906020018083116103de57829003601f168201915b505050505091505090565b5f33610413818585610577565b60019150505b92915050565b5f3361042c858285610589565b6104378585856105ed565b506001949350505050565b61044a61064a565b610453826106ee565b61045d82826106f6565b5050565b5f61046a6107b2565b505f516020610f2f5f395f51905f5290565b6104846107fb565b61048d5f610856565b565b6104976107fb565b61045d82826108c6565b7f52c63247e1f47db19d5ce0460030c497f067ca4cebf71ba98eeadabe20bace0480546060915f516020610f0f5f395f51905f529161038490610ea0565b5f336104138185856105ed565b6001600160a01b039182165f9081527f52c63247e1f47db19d5ce0460030c497f067ca4cebf71ba98eeadabe20bace016020908152604080832093909416825291909152205490565b61053d6107fb565b6001600160a01b03811661056b57604051631e4fbdf760e01b81525f60048201526024015b60405180910390fd5b61057481610856565b50565b61058483838360016108fa565b505050565b5f61059484846104ec565b90505f198110156105e757818110156105d957604051637dc7a0d960e11b81526001600160a01b03841660048201526024810182905260448101839052606401610562565b6105e784848484035f6108fa565b50505050565b6001600160a01b03831661061657604051634b637e8f60e11b81525f6004820152602401610562565b6001600160a01b03821661063f5760405163ec442f0560e01b81525f6004820152602401610562565b6105848383836109de565b306001600160a01b037f00000000000000000000000000000000000000000000000000000000000000001614806106d057507f00000000000000000000000000000000000000000000000000000000000000006001600160a01b03166106c45f516020610f2f5f395f51905f52546001600160a01b031690565b6001600160a01b031614155b1561048d5760405163703e46dd60e11b815260040160405180910390fd5b6105746107fb565b816001600160a01b03166352d1902d6040518163ffffffff1660e01b8152600401602060405180830381865afa925050508015610750575060408051601f3d908101601f1916820190925261074d91810190610ed8565b60015b61077857604051634c9c8ce360e01b81526001600160a01b0383166004820152602401610562565b5f516020610f2f5f395f51905f5281146107a857604051632a87526960e21b815260048101829052602401610562565b6105848383610b17565b306001600160a01b037f0000000000000000000000000000000000000000000000000000000000000000161461048d5760405163703e46dd60e11b815260040160405180910390fd5b3361082d7f9016d09d72d40fdae2fd8ceac6b6234c7706214fd39c1cd1e609a0528c199300546001600160a01b031690565b6001600160a01b03161461048d5760405163118cdaa760e01b8152336004820152602401610562565b7f9016d09d72d40fdae2fd8ceac6b6234c7706214fd39c1cd1e609a0528c19930080546001600160a01b031981166001600160a01b03848116918217845560405192169182907f8be0079c531659141344cd1fd0a4f28419497f9722a3daafe3b4186f6b6457e0905f90a3505050565b6001600160a01b0382166108ef57604051634b637e8f60e11b81525f6004820152602401610562565b61045d825f836109de565b5f516020610f0f5f395f51905f526001600160a01b0385166109315760405163e602df0560e01b81525f6004820152602401610562565b6001600160a01b03841661095a57604051634a1406b160e11b81525f6004820152602401610562565b6001600160a01b038086165f908152600183016020908152604080832093881683529290522083905581156109d757836001600160a01b0316856001600160a01b03167f8c5be1e5ebec7d5bd14f71427d1e84f3dd0314c0f7b2291e5b200ac8c7c3b925856040516109ce91815260200190565b60405180910390a35b5050505050565b5f516020610f0f5f395f51905f526001600160a01b038416610a185781816002015f828254610a0d9190610eef565b90915550610a889050565b6001600160a01b0384165f9081526020829052604090205482811015610a6a5760405163391434e360e21b81526001600160a01b03861660048201526024810182905260448101849052606401610562565b6001600160a01b0385165f9081526020839052604090209083900390555b6001600160a01b038316610aa6576002810180548390039055610ac4565b6001600160a01b0383165f9081526020829052604090208054830190555b826001600160a01b0316846001600160a01b03167fddf252ad1be2c89b69c2b068fc378daa952ba7f163c4a11628f55a4df523b3ef84604051610b0991815260200190565b60405180910390a350505050565b610b2082610b6c565b6040516001600160a01b038316907fbc7cd75a20ee27fd9adebab32041f755214dbc6bffa90cc0225b39da2e5c2d3b905f90a2805115610b64576105848282610bcf565b61045d610c6f565b806001600160a01b03163b5f03610ba157604051634c9c8ce360e01b81526001600160a01b0382166004820152602401610562565b5f516020610f2f5f395f51905f5280546001600160a01b0319166001600160a01b0392909216919091179055565b60605f610bdc8484610c8e565b9050808015610bfd57505f3d1180610bfd57505f846001600160a01b03163b115b15610c1257610c0a610ca1565b915050610419565b8015610c3c57604051639996b31560e01b81526001600160a01b0385166004820152602401610562565b3d15610c4f57610c4a610cba565b610c68565b60405163d6bda27560e01b815260040160405180910390fd5b5092915050565b341561048d5760405163b398979f60e01b815260040160405180910390fd5b5f5f5f835160208501865af49392505050565b6040513d81523d5f602083013e3d602001810160405290565b6040513d5f823e3d81fd5b602081525f82518060208401528060208501604085015e5f604082850101526040601f19601f83011684010191505092915050565b80356001600160a01b0381168114610d10575f5ffd5b919050565b5f5f60408385031215610d26575f5ffd5b610d2f83610cfa565b946020939093013593505050565b5f5f5f60608486031215610d4f575f5ffd5b610d5884610cfa565b9250610d6660208501610cfa565b929592945050506040919091013590565b634e487b7160e01b5f52604160045260245ffd5b5f5f60408385031215610d9c575f5ffd5b610da583610cfa565b9150602083013567ffffffffffffffff811115610dc0575f5ffd5b8301601f81018513610dd0575f5ffd5b803567ffffffffffffffff811115610dea57610dea610d77565b604051601f8201601f19908116603f0116810167ffffffffffffffff81118282101715610e1957610e19610d77565b604052818152828201602001871015610e30575f5ffd5b816020840160208301375f602083830101528093505050509250929050565b5f60208284031215610e5f575f5ffd5b610e6882610cfa565b9392505050565b5f5f60408385031215610e80575f5ffd5b610e8983610cfa565b9150610e9760208401610cfa565b90509250929050565b600181811c90821680610eb457607f821691505b602082108103610ed257634e487b7160e01b5f52602260045260245ffd5b50919050565b5f60208284031215610ee8575f5ffd5b5051919050565b8082018082111561041957634e487b7160e01b5f52601160045260245ffdfe52c63247e1f47db19d5ce0460030c497f067ca4cebf71ba98eeadabe20bace00360894a13ba1a3210667c828492db98dca3e2076cc3735a920a3ca505d382bbca264697066735822122085bfc2123c902ed2bb0271ecfc6fa90786b9b92006bc7928a148f21ce1d7133e64736f6c634300081c0033",
  "linkReferences": {},
  "deployedLinkReferences": {},
  "immutableReferences": {
    "1617": [
      {
        "length": 32,
        "start": 1621
      },
      {
        "length": 32,
        "start": 1662
      },
      {
        "length": 32,
        "start": 1981
      }
    ]
  },
  "inputSourceName": "project/contracts/tokenLab05v2.sol",
  "buildInfoId": "solc-0_8_28-3097e0ce88d89193d2ba8ae18f57490af71c9dbb"
}